:020000020000FC
:1000000014C013C012C011C03EC30FC00EC00DC03B
:100010000CC00BC00AC009C008C030C006C005C073
:1000200004C003C002C001C000C0F8940FE50DBFBA
:1000300001E00EBF4798A5D07AD0ABD18E9A9698A2
:10004000899A8898909ABC9AC49800E002B908E00E
:1000500009B90EE003B908E10AB90CE906BF02E0EC
:1000600000BF05E003BF09B7016009BF0027009387
:10007000920000939300A8D278946BC20F930FB7AD
:100080000F93EF93FF93AF93BF93CF93DF931F93A0
:100090002F933F9300919200039500939200077075
:1000A00039F410919300112319F000939300B49A3E
:1000B0008BD159D0009181000A9511F41CD102E333
:1000C0000093810099D23F912F911F91DF91CF91A1
:1000D000BF91AF91FF91EF910F910FBF0F911895C5
:1000E000000008950AE00F9304E60F9307D00F91E4
:1000F0000A95D9F70F910A95B1F7089503D002D068
:1001000001D002C001D000D003D002D001D000D075
:100110000F9300E202C00F9308E0000000000A9570
:10012000E1F70F910895EADF0A95E9F70895BE9A7D
:10013000C698BF9AC798BB9AC398EADF11270F9356
:100140001F9308E0C698169508F4C69A00000000B0
:10015000C79A00000000C7980A95A1F7C39A1F919B
:100160000F91C39808951127F6E0E6EE79D10F3F7D
:1001700009F4E5CF202F74D132D00023B9F3122B2C
:10018000F5CF02E3009332000027009360000027C0
:10019000F0E0E2E818E00CD0F0E0E1E608D0F0E0B2
:1001A000E9E705D0F0E0E9E602D0F0E0E1E718E0A9
:1001B00001931A95E9F708950F9321E0077019F05C
:1001C000220F0A95E9F71F91169516951695089531
:1001D000F3DF2F932227E10FF21F2F9108950034B0
:1001E00010F000270895EF93FF931F932F93F0E0F3
:1001F000E1E6EEDF008102232F911F91FF91EF9145
:100200000895EF93FF93103079F0113041F11230DF
:1002100031F1133021F11430A1F01530F1F0163026
:1002200009F1FF91EF9108950027F0E0E1E6BFDFCB
:100230000027F0E0E9E6BBDF0FEFF0E0E1E7B7DF32
:10024000F0CF2F93032FF0E0E1E6C2DF008102231D
:100250002F9111E021F012E002C036D0E2CF022F40
:1002600005D0DFCFE22FF32F0995DBCF1F93F0E00E
:10027000E1E6AEDF322F30950F91013029F00230E8
:1002800099F00081022381F0008103230083F0E0D4
:10029000E9E69FDF008103230083F0E0E1E799DFD7
:1002A0000081022B008308950081022B0083F0E07F
:1002B000E9E68FDF0081022B0083F0E0E1E789DFD0
:1002C000008103230083089514E0F0E0E2E8019147
:1002D0000191021761F01A95D1F714E0F0E0E2E81D
:1002E00001910023019119F01A95D1F708953297E1
:1002F00031932083089534E0F0E0E2E80191219108
:10030000002371F032970A9501933196002341F44E
:10031000EF93FF933F9311E074DF3F91FF91EF91D3
:100320003A9561F70895F0E0E1E6D0E0C9E638E0FB
:1003300000811881202F20951223012B01931993FE
:100340003A95B1F7F0E0E1E6D0E0C1E738E00081AE
:1003500018811023109501231095019319933A9554
:10036000B1F7089518E0019109931A95E1F70895FE
:1003700020313230013738360237383610313230DA
:100380000431323004373836013A3B39023A3B39CE
:100390000000BB27F3E0E0E71591112361F0212F66
:1003A0002095A5910C9102230C93A5910C91012B02
:1003B0000C933196F1CFF0E0EAE818E000270193C2
:1003C0001A95E9F7B9980895F3E0E0E7D0E0CAE8B4
:1003D00022271591112389F1A591A591A591EF935C
:1003E000FF93EE27FF27BB270C910123088151F0D3
:1003F000053030F00233F7E0EAE010F4F7E0E2E035
:1004000000270BC00F3F49F00395053011F4F6E0CB
:10041000E0EF023311F4F7E0E8E008830E2F0F2B32
:1004200039F0DF93CF932F9309D02F91CF91DF91A4
:10043000FF91EF9121962395CCCF089511D00F3FD6
:1004400071F0021751F42F930BD0102F09D0202FE9
:1004500007D0302FD6DE2F91F1CF3396EFCF08950E
:10046000059108955498969A5E9A0CB95E9BFECFBA
:100470009698549A0895AFEFBFEF4CD00F93029522
:100480000F70006FEFDF0F910F70ECCF43D00F9321
:1004900002950F70E7DF0F910F70E4CF0A2FF7DF9F
:1004A0000B2FF5CF1F9325D01F9181F40F93007F61
:1004B00001171F9159F41F7012951BD039F40F9337
:1004C000007F0F9119F40F70012B18940895AFEF6E
:1004D000BFEF1F9310EFE6DF1F9111F41BD01894AC
:1004E00008951F9310E0DEDF1F9111F413D01894CC
:1004F0000895EF93FF93F9E0EAE05F9906C0319722
:10050000E1F7FF91EF91989408950CB1FF91EF916D
:10051000189408950F931F932F9310EA21E0A027BA
:1005200008E08894B795A79510F4B127A2270A95FB
:10053000C1F72F911F910F9108951127B3DF41F457
:100540000F931127AFDF1F9119F40B1709F41A1736
:1005500008957894BCDFE9F70B3AD9F7C2DFC9F701
:100560000130B9F7BEDFA9F700939400F0E0E5E9A8
:1005700018E0B7DF71F701931A95D9F7DEDF49F775
:10058000F89414D00FEF0093930078940DEC73DF80
:1005900001E07CDF0091600079DFF0E0E1E618E047
:1005A000019174DF1A95E1F779DFD3CF00916000F4
:1005B00010919400101738F010936000F0E0E5E916
:1005C000D0E0C1E6CFDEAFCE8B9A939800270093A0
:1005D0009E0000939F000093A00000939D00009355
:1005E000A1000093A20008E010E70BBD1ABD00E0D7
:1005F0000FBD09E00EBD089500919D000023D9F4C0
:100600002091A100222371F00091A200002329F083
:100610000A950093A200022FA1F411E0F2DD002759
:100620000093A10004E208D061F405E205D049F48A
:1006300006E202D031F408950F93D1DD00230F912B
:1006400008950093A1000432F7E0E0E331F00532B1
:10065000F7E0E0E111F0F7E0E0E50091A20000230F
:1006600019F400E10093A20000E200C0E0939E00B4
:10067000F0939F000093A00000E800939D0009B74D
:10068000006409BF08950F930FB70F931F93EF9363
:10069000FF9310919D001123F9F0E0919E00F091DD
:1006A0009F0010919D000591012311F0939A01C0C4
:1006B0009398169579F410E8E0939E00F0939F00CC
:1006C0000091A0000A950093A00021F409B70F7BC8
:1006D00009BF112710939D00FF91EF911F910F917A
:1006E0000FBF0F9118958000020110020803FFFF51
:1006F00000020000010301000203080007030200DA
:10070000FFFF00010000FFFFFFFF00010000FFFFEF
:10071000FFFFF34D24DB6936D26DA6DB69A6924953
:10072000249A4924926924DA69B69B0000000000EB
:10073000FFFFF34D24DB6936D26DA6DB69A6924933
:10074000249A4924924934DA4D269B000000000087
:10075000FFFFF34D24DB6936D26DA6DB69A6924913
:10076000249A4924924D24DA4DB69B0000000000E3
:00000001FF
